{
  "contractName": "Election",
  "abi": [
    {
      "constant": true,
      "inputs": [],
      "name": "candidatesCount",
      "outputs": [
        {
          "name": "",
          "type": "uint256"
        }
      ],
      "payable": false,
      "stateMutability": "view",
      "type": "function"
    },
    {
      "constant": true,
      "inputs": [
        {
          "name": "",
          "type": "uint256"
        }
      ],
      "name": "candidates",
      "outputs": [
        {
          "name": "id",
          "type": "uint256"
        },
        {
          "name": "name",
          "type": "string"
        },
        {
          "name": "voteCount",
          "type": "uint256"
        }
      ],
      "payable": false,
      "stateMutability": "view",
      "type": "function"
    },
    {
      "constant": true,
      "inputs": [
        {
          "name": "",
          "type": "address"
        }
      ],
      "name": "voters",
      "outputs": [
        {
          "name": "",
          "type": "bool"
        }
      ],
      "payable": false,
      "stateMutability": "view",
      "type": "function"
    },
    {
      "constant": true,
      "inputs": [],
      "name": "hashFingerPrint",
      "outputs": [
        {
          "name": "",
          "type": "string"
        }
      ],
      "payable": false,
      "stateMutability": "view",
      "type": "function"
    },
    {
      "inputs": [],
      "payable": false,
      "stateMutability": "nonpayable",
      "type": "constructor"
    },
    {
      "constant": false,
      "inputs": [
        {
          "name": "_candidateId",
          "type": "uint256"
        }
      ],
      "name": "vote",
      "outputs": [],
      "payable": false,
      "stateMutability": "nonpayable",
      "type": "function"
    }
  ],
  "bytecode": "0x608060405234801561001057600080fd5b5061005e6040805190810160405280601081526020017f59656c6c6f772043616e646964617465000000000000000000000000000000008152506100b0640100000000026401000000009004565b6100ab6040805190810160405280601081526020017f4f72616e67652043616e646964617465000000000000000000000000000000008152506100b0640100000000026401000000009004565b6101d2565b6003600081548092919060010191905055506060604051908101604052806003548152602001828152602001600081525060016000600354815260200190815260200160002060008201518160000155602082015181600101908051906020019061011c92919061012d565b506040820151816002015590505050565b828054600181600116156101000203166002900490600052602060002090601f016020900481019282601f1061016e57805160ff191683800117855561019c565b8280016001018555821561019c579182015b8281111561019b578251825591602001919060010190610180565b5b5090506101a991906101ad565b5090565b6101cf91905b808211156101cb5760008160009055506001016101b3565b5090565b90565b610510806101e16000396000f30060806040526004361061006d576000357c0100000000000000000000000000000000000000000000000000000000900463ffffffff1680630121b93f146100725780632d35a8a21461009f5780633477ee2e146100ca578063a3ec138d1461017e578063fafe41e2146101d9575b600080fd5b34801561007e57600080fd5b5061009d60048036038101908080359060200190929190505050610269565b005b3480156100ab57600080fd5b506100b461035e565b6040518082815260200191505060405180910390f35b3480156100d657600080fd5b506100f560048036038101908080359060200190929190505050610364565b6040518084815260200180602001838152602001828103825284818151815260200191508051906020019080838360005b83811015610141578082015181840152602081019050610126565b50505050905090810190601f16801561016e5780820380516001836020036101000a031916815260200191505b5094505050505060405180910390f35b34801561018a57600080fd5b506101bf600480360381019080803573ffffffffffffffffffffffffffffffffffffffff169060200190929190505050610426565b604051808215151515815260200191505060405180910390f35b3480156101e557600080fd5b506101ee610446565b6040518080602001828103825283818151815260200191508051906020019080838360005b8381101561022e578082015181840152602081019050610213565b50505050905090810190601f16801561025b5780820380516001836020036101000a031916815260200191505b509250505060405180910390f35b6000803373ffffffffffffffffffffffffffffffffffffffff1673ffffffffffffffffffffffffffffffffffffffff16815260200190815260200160002060009054906101000a900460ff161515156102c157600080fd5b6000811180156102d357506003548111155b15156102de57600080fd5b600160008281526020019081526020016000206002016000815480929190600101919050555060016000803373ffffffffffffffffffffffffffffffffffffffff1673ffffffffffffffffffffffffffffffffffffffff16815260200190815260200160002060006101000a81548160ff02191690831515021790555050565b60035481565b6001602052806000526040600020600091509050806000015490806001018054600181600116156101000203166002900480601f0160208091040260200160405190810160405280929190818152602001828054600181600116156101000203166002900480156104165780601f106103eb57610100808354040283529160200191610416565b820191906000526020600020905b8154815290600101906020018083116103f957829003601f168201915b5050505050908060020154905083565b60006020528060005260406000206000915054906101000a900460ff1681565b60028054600181600116156101000203166002900480601f0160208091040260200160405190810160405280929190818152602001828054600181600116156101000203166002900480156104dc5780601f106104b1576101008083540402835291602001916104dc565b820191906000526020600020905b8154815290600101906020018083116104bf57829003601f168201915b5050505050815600a165627a7a72305820eb6827793769be48b8dfd2f240d6fa0451278ffb5ccc43205a9dfae4f6993b760029",
  "source": "// solium-disable linebreak-style\r\npragma solidity  ^0.4.24;\r\n\r\ncontract Election {\r\n    \r\n    // Model a candidate\r\n    struct Candidate {\r\n        uint id;\r\n        string name;\r\n        uint voteCount;               \r\n    }\r\n\r\n    // Store accounts that has voted\r\n    mapping(address => bool) public voters;\r\n    // Store and Fetch candidate    \r\n    mapping(uint => Candidate) public candidates;\r\n    // Store Finger print of the voter\r\n    string public hashFingerPrint;\r\n    // Store candidates count\r\n    uint public candidatesCount;\r\n    // Constructor \r\n    function Election() public {\r\n        addCandidate(\"Yellow Candidate\");\r\n        addCandidate(\"Orange Candidate\"); \r\n    }\r\n    function addCandidate (string _name) private {\r\n        candidatesCount ++;\r\n        candidates[candidatesCount] = Candidate(candidatesCount, _name, 0);\r\n    }\r\n\r\n    // With INFURA    \r\n    // function vote (uint _candidateId, string _fingerPrint) public {        \r\n    //     // require that they haven´t voted before\r\n    //     require(!voters[msg.sender]);\r\n    //     // require(!Voter.hasVoted[msg.sender]);\r\n    //     // require a a valid candidate\r\n    //     require(_candidateId > 0 && _candidateId <= candidatesCount);\r\n    //     // update candidate vote count\r\n    //     candidates[_candidateId].voteCount ++;\r\n    //     //record voterFingerPrint\r\n    //     hashFingerPrint = _fingerPrint;\r\n    //     // record that voter has voted\r\n    //     voters[msg.sender] = true;\r\n    // }\r\n    \r\n    function vote (uint _candidateId) public {        \r\n        // require that they haven´t voted before\r\n        require(!voters[msg.sender]);\r\n        // require(!Voter.hasVoted[msg.sender]);\r\n        // require a a valid candidate\r\n        require(_candidateId > 0 && _candidateId <= candidatesCount);\r\n        // update candidate vote count\r\n        candidates[_candidateId].voteCount ++;\r\n        // record that voter has voted\r\n        voters[msg.sender] = true;\r\n    }\r\n    \r\n\r\n    // Method for getting the hash\r\n    // function getFingerPrint(address _key) public view returns (string){\r\n    //     return hashFingerPrint;\r\n    // }\r\n}",
  "sourcePath": "C:/Users/Kiera/blockchain_projects/ElectionApp/contracts/Election.sol",
  "compiler": {
    "name": "solc",
    "version": "0.4.24+commit.e67f0147.Emscripten.clang"
  },
  "schemaVersion": "3.0.16",
  "updatedAt": "2020-02-18T19:48:31.634Z",
  "devdoc": {
    "methods": {}
  },
  "userdoc": {
    "methods": {}
  }
}